:1000000039C1000068C1000066C1000064C1000081
:1000100062C1000060C100005EC100005CC1000060
:100020005AC1000058C1000056C1000054C1000070
:1000300052C1000050C100004EC100004CC1000080
:100040004AC1000087C7000046C1000044C100004B
:1000500042C1000040C100003EC1000069C600006E
:100060003AC10000C1C3000096C3000034C10000C3
:1000700032C1000030C100002EC100002CC10000C0
:100080003CC7000028C1000026C1000024C10000B8
:1000900022C1000020C100001EC100001CC10000E0
:1000A0001AC1000018C10000FBC6000014C1000006
:1000B00012C1000010C100000EC10000C4C6000043
:1000C0000AC1000008C1000006C1000004C1000010
:1000D00002C1000000C10000FEC00000FCC0000022
:1000E000FAC0000098029B028A028E029402D20299
:1000F0009F02A302A902AD02B102B702BB02BF0276
:10010000D202C502C902CD0200002100240027004E
:100110002A002D0030003300010100000401070116
:100120000A0100002200250028002B002E003100CB
:10013000340002010000050108010B01000020004D
:100140002300260029002C002F00320000010000AF
:10015000030106010901050505050705080808084A
:10016000020202020A0A080804040404010101014F
:10017000010101010303030303030303040707074A
:100180000C0C0C0C0C0C0C0C0202020206060606EF
:10019000060606060B0B0B0B0B0B0B0B01021020BC
:1001A00020080810204010204080020102010804AD
:1001B0000201010204081020408080402010080441
:1001C000020180040201804020100804020108049A
:1001D00002010102040810204080010204081020DE
:1001E000408000000A0B02090C0D0E0807030401F1
:1001F00000000000000000000000000000000000FF
:1002000000000000000000000000000000001211CB
:1002100010000000000000000000000000000000CE
:1002200000000000000000000103020001020102C2
:100230000802040108020401080402010804020182
:100240000C0606030C0606030A0605090A0605093C
:10025000080C040602030109080A02060405010944
:10026000080C040602030109080A02060405010934
:1002700056104E1011241FBECFEFD1E2DEBFCDBF0E
:1002800000E00CBF12E0A0E0B2E0EEE9FBE200E02B
:100290000BBF02C007900D92AC34B107D9F724E030
:1002A000ACE4B2E001C01D92A237B207E1F711E061
:1002B000C9E3D1E000E006C021970109802FFE01CB
:1002C0000E949613C833D10780E00807A9F70E945F
:1002D000790C0C94BE1594CE089580E090E00895BA
:1002E000FC01538D448D252F30E0842F90E0821B3C
:1002F000930B541710F0CF96089501970895FC01C1
:10030000918D828D981761F0828DDF01A80FB11D4C
:100310005D968C91928D9F5F9F73928F90E0089570
:100320008FEF9FEF0895FC01918D828D981731F02A
:10033000828DE80FF11D858D90E008958FEF9FEF7E
:100340000895FC01918D228D892F90E0805C9F4F54
:10035000821B91098F739927089586EF92E0F1DF50
:1003600021E0892B09F420E0822F0895FC01848D7F
:10037000DF01A80FB11DA35ABF4F2C91848D90E0CF
:1003800001968F739927848FA689B7892C93A089AA
:10039000B1898C91837080648C93938D848D981334
:1003A00006C00288F389E02D80818F7D80830895C7
:1003B000EF92FF920F931F93CF93DF93EC0181E0B5
:1003C000888F9B8D8C8D981305C0E889F989808171
:1003D00085FD25C0F62E0B8D10E00F5F1F4F0F73AC
:1003E0001127E02E8C8DE8120BC00FB607FCFACF58
:1003F000E889F989808185FFF5CFCE01B7DFF2CF9B
:100400008B8DFE01E80FF11DE35AFF4FF0829FB77D
:10041000F8940B8FEA89FB89808180620AC09FB7BC
:10042000F894EE89FF896083E889F9898081837077
:10043000806480839FBF81E090E0DF91CF911F9126
:100440000F91FF90EF900895CF93DF93EC01888D8B
:100450008823C1F0EA89FB89808185FD05C0A889D0
:10046000B9898C9186FD0EC00FB607FCF5CF80814F
:1004700085FFF2CFA889B9898C9185FFEDCFCE0198
:1004800075DFE8CFDF91CF91089580E090E0892B70
:1004900019F063DF811125C080E090E0892B41F0E5
:1004A00080E090E0892B21F00E94000081111CC0A7
:1004B00080E090E0892B41F080E090E0892B21F0F2
:1004C0000E940000811113C080E090E0892BA1F010
:1004D00080E090E0892B81F00E94000081110AC029
:1004E00008950E940000D8CF0E940000E1CF0E9432
:1004F0000000EACF0C940000089590E0FC013197D1
:10050000E231F10508F04EC08827EE58FF4F8F4FBB
:100510000C949613809180008F7703C080918000A7
:100520008F7D80938000089580918000877FF9CF30
:1005300084B58F7702C084B58F7D84BD0895809186
:10054000B0008F7703C08091B0008F7D8093B000A2
:100550000895809190008F7707C0809190008F7DE3
:1005600003C080919000877F8093900008958091D0
:10057000A0008F7707C08091A0008F7D03C080917D
:10058000A000877F8093A0000895809120018F773D
:1005900007C0809120018F7D03C080912001877F5B
:1005A0008093200108953FB7F8948091560290916E
:1005B0005702A0915802B091590226B5A89B05C0D8
:1005C0002F3F19F00196A11DB11D3FBFBA2FA92FD2
:1005D000982F8827820F911DA11DB11DBC01CD014F
:1005E00042E0660F771F881F991F4A95D1F708953B
:1005F000CF92DF92EF92FF92CF93DF93EC0177FFE0
:1006000002C081E08EA777FF07C070956095509576
:1006100041955F4F6F4F7F4F58AB4FA76A017B01EA
:10062000EE24FF242FA138A549A55AA560E67AEE4D
:1006300080E090E00E942712CA01B901A70196014B
:100640000E94271229AB3AAB4BAB5CAB0AA0DBA1F3
:10065000C02D2E813F81032E000C440B550B60E012
:1006600077E883E993E00E944912CA01B901A70122
:1006700096010E9449122A833B834C835D83DF915C
:10068000CF91FF90EF90DF90CF900895CF92DF92BF
:10069000EF92FF92CF93DF93EC01603282E0780714
:1006A0000CF03DC077FD06C0653B71052CF064EB96
:1006B00070E002C060E070E0898128E830E0690104
:1006C000C81AD10887FDD394CC0CDD1CCC0CDD1CE2
:1006D0000D2C000CEE08FF088A8128E532E0281B6B
:1006E000310987FD3395220F331F220F331FC901B4
:1006F000330FAA0BBB0B9C01AD012C193D094E0910
:100700005F09DB010E946F1224EB30E040E050E013
:100710000E944912C20ED31EE41EF51EB601388196
:10072000303380F5298188E890E0821B910927FD0C
:100730009395880F991F880F991F6817790784F080
:100740008A8148E552E0481B510987FD5395440FC3
:10075000551F440F551FCB01461757070CF4CA010C
:100760000297880F991F4FB7F894232F30E0F901B3
:10077000EE0FFF1F2E0F3F1FF901E65AFD4F928328
:1007800081834FBFDF91CF91FF90EF90DF90CF90AB
:1007900008950C9436141F920F920FB60F921124E5
:1007A0000BB60F922F933F934F935F936F937F936B
:1007B0008F939F93AF93BF93EF93FF9386EF92E056
:1007C000D5DDFF91EF91BF91AF919F918F917F9177
:1007D0006F915F914F913F912F910F900BBE0F90B2
:1007E0000FBE0F901F9018951F920F920FB60F9289
:1007F00011240BB60F922F938F939F93EF93FF9338
:10080000E0910603F09107038081E0910C03F091E1
:100810000D0382FD12C0908180910F038F5F8F7353
:1008200020911003821751F0E0910F03F0E0EA509D
:10083000FD4F958F80930F0301C08081FF91EF9151
:100840009F918F912F910F900BBE0F900FBE0F9025
:100850001F901895CF93DF93282F30E0F901EE51C8
:10086000FE4F8491F901E456FE4FD491F901EA5A02
:10087000FE4FC491CC2389F081113FDEEC2FF0E0D4
:10088000EE0FFF1FE45CFE4FA591B491EC91ED23B8
:1008900081E090E021F480E002C080E090E0DF9110
:1008A000CF9108951F93CF93DF93282F30E0F90164
:1008B000EE51FE4F8491F901E456FE4FD491F901B7
:1008C000EA5AFE4FC491CC23B9F0162F811115DEE0
:1008D000EC2FF0E0EE0FFF1FEE5DFE4FA591B491FF
:1008E0009FB7F894111104C08C91D095D82302C001
:1008F000EC91DE2BDC939FBFDF91CF911F91089588
:100900000F931F93CF93DF93EC012CA1062F10E0E0
:1009100088A199A1EDA1FEA1DC01A00FB11F6C91EE
:10092000243039F563FB662760F98081BBDFE8A1DD
:10093000F9A1E00FF11F608162FB662760F9EDA16C
:10094000FEA18181AFDFE8A1F9A1E00FF11F608175
:1009500066956170EDA1FEA18281A4DF68A179A1F5
:10096000FB01E00FF11F60816170EDA1FEA18381A9
:100970000EC066956170808195DF68A179A1FB0149
:10098000E00FF11F60816170EDA1FEA18181DF9117
:10099000CF911F910F9186CFCF92DF92EF92FF926E
:1009A0000F931F93CF93DF936C018B017A01EC01BE
:1009B000C45BDD4F888187FF04C0FB011182108278
:1009C00024C02CE02C9DC0012D9D900D1124288168
:1009D000AC01420F511D27FD5A952091500230E085
:1009E0004217530794F42881AC01420F511D27FD93
:1009F0005A959A01FA01EE0FFF1F2E0F3F1FF901C2
:100A0000E65AFD4F208126FD19C088818F5F8883BB
:100A10002CE02C9DC0012D9D900D11242881AC014E
:100A2000420F511D27FD5A952091500230E0421788
:100A30005307B4F428812C303CF112C02881820F76
:100A4000911D27FD9A95FC01EE0FFF1F8E0F9F1F32
:100A5000FC01E65AFD4F808160E08F7323DFD5CF24
:100A6000F80180819181049680349C4918F480E4D7
:100A70009CE904C0F801808191810496F70191837B
:100A800080838FEF888344C0F801408151812881A1
:100A9000BC01620F711D27FD7A959B01FB01EE0FD2
:100AA000FF1F2E0F3F1FF901E65AFD4F21813281B2
:100AB000240F351FF701318320832881AC01420FB9
:100AC000511D27FD5A959A01FA01EE0FFF1F2E0FB7
:100AD0003F1FF901E65AFD4F208126FF19C02881EA
:100AE000820F911D27FD9A95FC01EE0FFF1F8E0FBF
:100AF0009F1FFC01E65AFD4F808161E08F73DF91FB
:100B0000CF911F910F91FF90EF90DF90CF90CACEC1
:100B1000DF91CF911F910F91FF90EF90DF90CF90D9
:100B20000895CF93DF9390E0FC01E456FE4F2491AB
:100B3000FC01EA5AFE4F8491882361F190E0880F0E
:100B4000991FFC01E85FFE4FC591D491FC01EE5D59
:100B5000FE4FA591B491611109C09FB7F8948881A7
:100B6000209582238883EC912E230BC0623061F4A0
:100B70009FB7F8948881322F309583238883EC9136
:100B80002E2B2C939FBF06C08FB7F894E8812E2B95
:100B900028838FBFDF91CF9108951F93CF93DF9369
:100BA000EC01162F8881803308F04DC061E0812F61
:100BB000B8DF8881E82FF0E09F01220F331FE20F9A
:100BC000F31FE65AFD4F1F739081907C192B108301
:100BD00019821A826CE00E948A139CE0899FB001FE
:100BE000112440E050E09B01240F351FF901EE0F66
:100BF000FF1F2E0F3F1FF901E65AFD4F908196FD12
:100C000016C04F5F5F4F4C30510569F7813001F5D9
:100C10001092800082E080938100109285001092F3
:100C20008400B19A80916F00826080936F00E881A8
:100C3000F0E0CF01880F991FE80FF91FE65AFD4F2A
:100C40008081806480838881DF91CF911F91089596
:100C5000823061F410929000809391001092950080
:100C60001092940088BB80937100E1CF833069F4C7
:100C70001092A00082E08093A1001092A500109233
:100C8000A40089BB80937200D2CF8111D0CF109283
:100C9000200182E08093210110922501109224010D
:100CA0008ABB80937300C3CF8F929F92AF92BF9203
:100CB000CF92DF92EF92FF926B017C0174DC4B01CB
:100CC0005C01C114D104E104F104E9F06CDCDC0145
:100CD000CB0188199909AA09BB09883E9340A1054F
:100CE000B10578F321E0C21AD108E108F10888EED5
:100CF000880E83E0981EA11CB11CC114D104E1042C
:100D0000F10421F7DECFFF90EF90DF90CF90BF90FE
:100D1000AF909F908F9008952FB7F89460915202F2
:100D20007091530280915402909155022FBF089503
:100D30001F920F920FB60F9211242F933F938F9310
:100D40009F93AF93BF938091520290915302A091D1
:100D50005402B09155023091510223E0230F2D37F8
:100D600020F40196A11DB11D05C026E8230F0296AF
:100D7000A11DB11D20935102809352029093530202
:100D8000A0935402B093550280915602909157025D
:100D9000A0915802B09159020196A11DB11D8093F6
:100DA000560290935702A0935802B0935902BF91F4
:100DB000AF919F918F913F912F910F900FBE0F9008
:100DC0001F901895CF93DF93EC018AE092E099830E
:100DD000888388A199A1009711F00E9436148AA1F6
:100DE0009BA10E9436148DA19EA1009721F0DF9156
:100DF000CF910C943614DF91CF910895CF93DF9368
:100E0000EC01E0DFCE01DF91CF910C943614FC01B0
:100E1000909150029033A0F481E0890F80935002AA
:100E20009083892F90E0FC01EE0FFF1F8E0F9F1F14
:100E3000FC01E65AFD4F88EB9BE092838183089585
:100E40008FEF808308951F920F920FB60F92112497
:100E50000BB60F922F933F934F935F936F937F93B4
:100E60008F939F93AF93BF93EF93FF9348E251E02B
:100E700064E271E080E090E08FDDFF91EF91BF913F
:100E8000AF919F918F917F916F915F914F913F9122
:100E90002F910F900BBE0F900FBE0F901F901895C3
:100EA0001F920F920FB60F9211240BB60F922F9331
:100EB0003F934F935F936F937F938F939F93AF93E2
:100EC000BF93EF93FF9348EA50E064EA70E083E059
:100ED00090E062DDFF91EF91BF91AF919F918F9173
:100EE0007F916F915F914F913F912F910F900BBE2A
:100EF0000F900FBE0F901F9018951F920F920FB674
:100F00000F9211240BB60F922F933F934F935F9341
:100F10006F937F938F939F93AF93BF93EF93FF93C1
:100F200048E950E064E970E082E090E035DDFF914F
:100F3000EF91BF91AF919F918F917F916F915F9151
:100F40004F913F912F910F900BBE0F900FBE0F90BE
:100F50001F9018951F920F920FB60F9211240BB687
:100F60000F922F933F934F935F936F937F938F9342
:100F70009F93AF93BF93EF93FF9348E850E064E8EB
:100F800070E081E090E008DDFF91EF91BF91AF91BB
:100F90009F918F917F916F915F914F913F912F9191
:100FA0000F900BBE0F900FBE0F901F9018950895D5
:100FB000CF92DF92EF92FF920F931F93CF93DF9325
:100FC0006C017A018B01C0E0D0E0CE15DF0581F025
:100FD000D8016D918D01D601ED91FC910190F081C8
:100FE000E02DC6011995892B11F02196EECF7E01D7
:100FF000C701DF91CF911F910F91FF90EF90DF908C
:10100000CF900895FF920F931F93CF93DF93F82E05
:10101000062FC7E0D0E010E061E0802F43DC8F2D89
:1010200019DC0C2E01C0880F0A94EAF7182B60E037
:10103000802F38DC219780F7812FDF91CF911F918E
:101040000F91FF9008952F923F924F925F926F926F
:101050007F928F929F92AF92BF92CF92DF92EF9248
:10106000FF920F931F93CF93DF93EC01362E242E24
:10107000122F602E712CE22EF12CC42ED12CA62E14
:10108000B12C1D861C861B821A82188E198E1A8E10
:101090001B8E812C58E0952E99868886BF86AE8659
:1010A000D98AC88AFB8AEA8A7D8A6C8A61E0832DA4
:1010B00038DD61E0888935DD61E08A8932DD61E013
:1010C0008C892FDD1F8A1E8A64E0462E512C5B8698
:1010D0004A868AE092E09983888388EF92E09D8F28
:1010E0008C8F1F8E1E8E19A218A21BA21AA284E03A
:1010F0008CA381E08BA78CA78DA71EA618AA1FA67C
:1011000085E090E0A0E0B0E089AB9AABABABBCABC4
:101110001DAA1EAA1FAA18AE19AE1AAE1BAE1CAE8F
:1011200080E090E1A0E0B0E08FA398A7A9A7BAA7BC
:1011300084E090E00E949E13FC019EA38DA3308268
:101140002182128303838AE190E00E949E138C0126
:10115000FC011386128611821082168A178A108E5D
:10116000118E97828682B586A486D786C686F18A36
:10117000E08A738A628A61E0832DD3DC61E0F80142
:101180008685CFDC61E0F8018089CBDC61E0F80185
:101190008289C7DCF801158A148A518640861BA310
:1011A0000AA388A199A1009711F00E9436148CA17E
:1011B0008230E1F484E090E00E949E1399A388A31A
:1011C00080E090E02BA5FC0134E0239FE00DF11DB1
:1011D0001124E85DFD4FE491A8A1B9A1A80FB91FA2
:1011E000EC9301968430910569F727C088E090E080
:1011F0000E949E1399A388A380E090E0EBA5F0E005
:10120000EE0FFF1F2CA5E20FF11DEE0FFF1F2DA506
:10121000E20FF11D43E0EE0FFF1F4A95E1F7E80FE3
:10122000F91FE05DFD4FE491A8A1B9A1A80FB91F76
:10123000EC9301968830910509F7DF91CF911F91CA
:101240000F91FF90EF90DF90CF90BF90AF909F9065
:101250008F907F906F905F904F903F902F90089568
:101260000E949F15E6EFF2E0A089B18982E08C939D
:10127000A485B5851C92A685B7858FEC8C93108EBE
:10128000A489B58986E08C93A289B3898C91806109
:101290008C93A289B3898C9188608C93A289B3893D
:1012A0008C9180688C930288F389E02D80818F7DFA
:1012B00080830895CF92DF92EF92FF920F931F9356
:1012C000CF93DF936B01770FEE08FF08C114D104B1
:1012D000E104F10409F481C0EC011C141D041E0496
:1012E0001F0414F41EA60AC081E08EA7F094E094B7
:1012F000D094C094C11CD11CE11CF11C81E0C81A1F
:10130000D108E108F1088FEFC816D806E806F806FC
:1013100009F463C001DD09AD1AAD2BAD3CADDC01B4
:10132000CB01801B910BA20BB30B09A91AA92BA906
:101330003CA980179107A207B30730F461E070E081
:1013400080E090E0B1DCE6CFE7DC69AF7AAF8BAF4D
:101350009CAF2EA58DA99EA9AFA9B8ADAC01BD01CA
:10136000211116C04F5F5F4F6F4F7F4F4DAB5EAB8C
:101370006FAB78AF4FA158A569A57AA584179507DB
:10138000A607B707C9F41DAA1EAA1FAA18AE14C043
:1013900041505109610971094DAB5EAB6FAB78AF3C
:1013A000892B8A2B8B2B41F48FA198A5A9A5BAA5CF
:1013B0008DAB9EABAFABB8AF2CA130E0220F331F8B
:1013C000032E000C440B550B6DA97EA98FA998AD77
:1013D0000E942712CE0194DA91CFDF91CF911F9115
:1013E0000F91FF90EF90DF90CF900895EF92FF92D2
:1013F0001F93CF93DF93809164042CDA892BD9F764
:101400006091630480916404FDDDD82F60916304D2
:1014100080916404F7DDC82F6091630480916404B7
:10142000F1DD182FE12CF12C8091650490E0E81695
:10143000F90660F461E08091630434DA60E0809141
:10144000630430DA8FEFE81AF80AEECF3D2F3095BB
:101450006C2F6095412F409537FD0AC03F3751F4FE
:101460006F3F41F421E04F3F09F020E0219503C098
:101470002FEF01C020E0862F90E0A0E0B0E0BA2F6F
:10148000A92F982F8827A32B842BB22BBC01CD0129
:101490006F5F7F4F8F4F9F4FDF91CF911F91FF90D5
:1014A000EF9008950F931F9337DC6093FE027093C3
:1014B000FF02809300039093010386EF92E00E9465
:1014C0007F0197FF1EC028DC0091FE021091FF02F1
:1014D0002091000330910103DC01CB01801B910BB3
:1014E000A20BB30B0091FA021091FB022091FC02B7
:1014F0003091FD0280179107A207B307F0F28FEF3A
:101500009FEF1F910F910895FC01808191810097B9
:1015100009F049C660E070E0CB010895CF93DF93F6
:10152000FC0124813581232B69F0C081D181062EF5
:10153000000C770BCE010E94AC15009719F08C1BA4
:101540009D0B02C08FEF9FEFDF91CF9108950F9316
:101550001F93CF93DF93EC0188819981009729F045
:101560002A813B812617370788F48B016F5F7F4FF5
:101570000E94BF14009761F0998388831B830A83BC
:101580002C813D81232B11F4FC01108281E001C0EC
:1015900080E0DF91CF911F910F910895EF92FF921C
:1015A0000F931F93CF93DF93EC017B018A01BA0164
:1015B000CEDF2881398181110DC02115310519F047
:1015C000C9010E943614198218821D821C821B8256
:1015D0001A8206C01D830C83B701C9010E94B7158A
:1015E000CE01DF91CF911F910F91FF90EF90089561
:1015F000BF92CF92DF92EF92FF920F931F93CF9300
:10160000DF937C016B01EA0189012417350720F47F
:101610008D2FE901042F182FD70111961C921E92CD
:1016200013961C921E92129715961C921E92149756
:1016300040E050E06BE372E0C701B0DFF601848167
:101640009581C817D907B8F58017910708F48C0160
:10165000D601ED91FC911197E00FF11FB08010823F
:101660006D917C916C0F7D1F6115710559F0FB0127
:1016700001900020E9F73197AF01461B570BC701D6
:101680008DDF13C0F70180819181009711F00E94D6
:101690003614D70111961C921E9215961C921E921A
:1016A000149713961C921E921297D601ED91FC91FD
:1016B000E00FF11FB082C701DF91CF911F910F9111
:1016C000FF90EF90DF90CF90BF9008956115710566
:1016D00079F0FB0101900020E9F73197AF01461B3B
:1016E000570BDC01ED91FC910280F381E02D199400
:1016F00080E090E008952F923F924F925F926F9218
:101700007F928F929F92AF92BF92CF92DF92EF9291
:10171000FF920F931F93CF93DF93CDB7DEB7A497BC
:101720000FB6F894DEBF0FBECDBF4B015C019B012D
:10173000AC01ECD7882319F060E472E018C07501A1
:101740006401E894F7F82FEF3FEF4FE75FE7C70139
:10175000B601DCD781110FC02FEF3FEF4FE75FE7F6
:10176000C701B6015BD5181634F464E472E086EF65
:1017700092E0ACDFA5C02FEF3FEF4FE75FE4C5017C
:10178000B401C0D718161CF468E472E0F0CF2FEF54
:101790003FEF4FE75FECC501B40140D587FDF4CFC3
:1017A00020E030E0A901C501B40138D587FF0BC0A6
:1017B0006DE286EF92E00E94D8016C01B7FAB09416
:1017C000B7F8B09402C0C12CD12C2AE037ED43EA1F
:1017D0005BE3C501B40199D64B015C0167D72B01CE
:1017E0003C0120D59B01AC01C501B4018DD64B0154
:1017F0005C0119A27E0181E2E80EF11CEAA2FBA2C3
:10180000C301B2012AE030E040E050E020D62901D7
:101810003A01605DF70162937F01232B242B252B76
:1018200079F7BF0186EF92E051DF8C016EE286EF1F
:1018300092E00E94D801800F911F8C010C0D1D1D9C
:1018400083E0F82E9AE0292E312C412C512CFA9469
:10185000FF20A9F120E030E040E251E4C501B401ED
:1018600042D54B015C0122D79B0140E050E019A218
:101870006AA07BA06CA3C32ED42EE52ECA01B901A9
:10188000A2019101E4D5605DF30162933F0121154E
:1018900031054105510591F7BF0186EF92E016DF52
:1018A000080F191F6CA17C2D8D2D9E2DBBD49B0183
:1018B000AC01C501B40128D64B015C01C8CFC801F9
:1018C000A4960FB6F894DEBF0FBECDBFDF91CF91C7
:1018D0001F910F91FF90EF90DF90CF90BF90AF904E
:1018E0009F908F907F906F905F904F903F902F9040
:1018F0000895CF93DF93CDB7DEB72E970FB6F89448
:10190000DEBF0FBECDBF789484B5826084BD84B540
:10191000816084BD85B5826085BD85B5816085BDEA
:1019200080916E00816080936E00109281008091A2
:10193000810082608093810080918100816080932A
:101940008100809180008160809380008091B1004F
:1019500084608093B1008091B00081608093B0007A
:1019600080919100826080939100809191008160CC
:10197000809391008091900081608093900080918D
:10198000A10082608093A1008091A100816080937A
:10199000A1008091A00081608093A000809121012E
:1019A00082608093210180912101816080932101D7
:1019B0008091200181608093200180917A00846071
:1019C00080937A0080917A00826080937A0080917F
:1019D0007A00816080937A0080917A008068809399
:1019E0007A001092C1001092D7031092D80310927F
:1019F000D9031092DA031092950310929603109275
:101A000097031092980388D96B017C014B015C010C
:101A100028EB820E2BE0921EA11CB11C7DD96C1507
:101A20007D058E059F0528F086169706A806B9063F
:101A3000A8F786EF92E09093D6038093D50312DC4B
:101A40006BD960939503709396038093970390935B
:101A500098036AE272E08091D5039091D60336DE56
:101A60005BD96B017C014B015C013AE0830E911C58
:101A7000A11CB11C51D96C157D058E059F0528F060
:101A800086169706A806B906A8F781E08093A903F1
:101A9000E9DB1AE0C12CD12C7601A8DCC60ED71EDA
:101AA000E81EF91E1150C9F7C701B6012AE030E05F
:101AB00040E050E0EED4CA01B901B6D3F2D560934C
:101AC000660470936704809368049093690480E0CF
:101AD00090E8ABEBB4EC80936A0490936B04A09312
:101AE0006C04B0936D0444E050E060E070E084E288
:101AF00094E00E94F80244E050E060E070E087EE7D
:101B000093E00E94F80269E070E084EE93E045D82B
:101B10006AE570E084EE93E00E94460368E070E0BE
:101B200081EE93E03AD860E070E081EE93E00E94AD
:101B3000460362E070E08EED93E02FD862E370E040
:101B40008EED93E00E94460363E070E08BED93E03E
:101B500024D860E070E08BED93E00E944603F8E843
:101B60002F2E312C86EF92E00E94A101892B09F4DF
:101B700037C218861F821A8619861C861B8640E08B
:101B800050E06BE372E0CE01079608DD8BDC0B853D
:101B90001C8597FD17C089831A820F5F1F4FB801FC
:101BA000CE010796D4DC882389F32F8138858B8575
:101BB0009C85BE016F5F7F4F820F931FD8D71C8714
:101BC0000B87E4CF012B09F44DC0EF81F8853097E6
:101BD00009F448C08081843439F56CE372E086EF03
:101BE00092E074DD6091F2027091F3028091F40250
:101BF0009091F50280DD6EE372E086EF92E066DDA3
:101C00006091EE027091EF028091F0029091F102EA
:101C100072DD6CED75E080E090E046D869E372E03B
:101C200086EF92E053DDD9C18235E1F462E370E0E2
:101C30008EED93E00E9446036AE570E084EE93E047
:101C40000E9446036CE870E08BED93E00E9446032F
:101C500068EE73E080E090E027D860E070E08BED04
:101C600093E0B9C162E4CE01079658DC4C0166E40A
:101C7000CE01079653DC9E878D8765E5CE010796DA
:101C80004DDC5C018FEF881A980A2D853E85A401F2
:101C9000BE01695F7F4FCE010196AADCCE0101969D
:101CA00033DC072E000C880B990BBED229EE38EEE0
:101CB00040EE5FEB18D32BE53FE641EF52E425D42D
:101CC000F0D48B0189819A81D1D58091E60368E5B2
:101CD000462E62E0562E481A510887FD5394440C54
:101CE000551C440C551C052C000C66087708809187
:101CF000E5039101281B310987FD3395C901880F40
:101D0000991F880F991F6C01990FEE08FF088091A9
:101D1000E4038F3FC1F090E0FC01EE0FFF1F8E0F38
:101D20009F1FFC01E65AFD4F2181328143E0220FC3
:101D3000331F4A95E1F754E0369527955A95E1F718
:101D40002E5F3F4F02C020E030E02F5F3F4FC901C0
:101D5000330FAA0BBB0B9C01AD012C193D094E0999
:101D60005F09A4EBB0E0B1D3A30192012C193D09A6
:101D70004E095F098ED37901201731070CF083C01B
:101D8000B70184EE93E00E94460362E370E080E0D6
:101D900090E00E9454063FEFE31AF30A0E151F0568
:101DA0007CF72D853E85A401BE01695F7F4FCE0182
:101DB00001961EDCCE010196A7DB072E000C880BD6
:101DC000990B32D229EE38EE40EE5FEB8CD22BE548
:101DD0003FE641EF52E499D364D484EE93E00E944D
:101DE000460389819A8142D54D855E854F5F5F4F5D
:101DF0009501BE01695F7F4FCE010196F9DBCE01EF
:101E0000019682DB072E000C880B990B0DD22BEB71
:101E10003FE04AEF5EE379D32BE136EB44EA50E44E
:101E2000D8D33FD47B017093ED026093EC0289819B
:101E30009A811CD52B853C85A5014F5F5F4FBE0164
:101E4000695F7F4FCE010196D3DBCE0101965CDB4B
:101E5000072E000C880B990BE7D128E932E847E8F8
:101E600052E452D323EA3DEF4DEC5FEBB2D319D4E9
:101E70005B017093EB026093EA0289819A81F6D448
:101E8000C12CD12C1AC0B70184EE93E00E94460306
:101E900062E370E080E090E00E94540681E0E81A7E
:101EA000F108E016F1067CF77CCF60E078EF87EE72
:101EB00093E000DA2FEFC21AD20ACE14DF04ACF39B
:101EC000C12CD12CCA14DB044CF460E078E084E22D
:101ED00094E0F0D93FEFC31AD30AF4CFC12CD12C30
:101EE000B60181EE93E00E94460362E370E080E079
:101EF00090E00E9454068FEFC81AD80A27E9C2164C
:101F0000D10471F7C12CD12CCA14DB0434F0C12CDC
:101F1000D12C34E0E31AF10809C060E078EF84E2E4
:101F200094E0C8D98FEFC81AD80AEECFCE14DF04D8
:101F30004CF460E078E087EE93E0BCD92FEFC21A52
:101F4000D20AF4CF0A3811059CF4B80184EE93E06C
:101F50000E94460362E370E080E090E00E94540635
:101F60000F5F1F4F0B38110581F706E910E011C014
:101F7000B80184EE93E00E94460362E370E080E0E3
:101F800090E00E945406015011090938110581F7AB
:101F9000ECCFB80181EE93E00E9446036AE070E066
:101FA00080E090E00E9454060150110990F769E129
:101FB00070E08EED93E00E94460304E010E060E0E4
:101FC00078E087EE93E076D901501109C1F76AE510
:101FD00070E084EE93E00E9446038F81988546D49A
:101FE00080917B00877F80937B0082E480937C00DC
:101FF00080917A00806480937A0080917A0086FDD7
:10200000FCCF609178008091790070E0782B072EEA
:10201000000C880B990B08D120E030E04DE453E42C
:10202000D8D220E030E048EC52E45DD120E030E04E
:1020300048E452E469D26093F2027093F302809311
:10204000F4029093F50260ED77E080E090E00E946A
:102050005406CCD90091660410916704209168045D
:1020600030916904601B710B820B930BDDD02091C2
:102070006A0430916B0440916C0450916D04A9D2B4
:10208000DC01CB01BF778093EE029093EF02A09327
:10209000F002B093F1020E94450264CD87EE93E016
:1020A0000E94E20684E294E00C94E2060F93CF9340
:1020B000DF93E6EFF2E01382128288EE93E0A0E075
:1020C000B0E084839583A683B78384E192E0918313
:1020D000808385EC90E09587848784EC90E09787F7
:1020E000868780EC90E0918B808B81EC90E0938BE5
:1020F000828B82EC90E0958B848B86EC90E0978BC2
:10210000868B118E128E138E148EE3E9F3E0168205
:1021100017821086118612861386148615861686F7
:102120001786108A118A128A138A148A158AC1E6C0
:10213000D4E086E292E0998388838EE28A838DE2FE
:102140008B8361E08EE20E94910560E08B810E94AA
:10215000910581E08C8360E08A810E94520446D917
:102160000DE02BE04CE06AE084E294E00E9423085A
:1021700007E025E046E064E087EE93E00E94230854
:1021800084EE93E00E94070781EE93E00E94070728
:102190008EED93E00E9407078BED93E0DF91CF91E6
:1021A0000F910C9407071F93FC0199278827BC0106
:1021B000E89411911032E9F3193010F01E30C8F391
:1021C0001B3249F01D3241F4689405C012D0610FF2
:1021D000711D811D911D119110531A30B8F33EF4F9
:1021E00090958095709561957F4F8F4F9F4F1F9170
:1021F0000895592F482F372F262F660F771F881FD6
:10220000991F660F771F881F991F620F731F841F06
:10221000951F660F771F881F991F089540D008F4F7
:1022200081E00895E89409C097FB3EF4909580956D
:10223000709561957F4F8F4F9F4F9923A9F0F92F8C
:1022400096E9BB279395F695879577956795B7950A
:10225000F111F8CFFAF4BB0F11F460FF1BC06F5FF0
:102260007F4F8F4F9F4F16C0882311F096E911C002
:10227000772321F09EE8872F762F05C0662371F023
:1022800096E8862F70E060E02AF09A95660F771F37
:10229000881FDAF7880F9695879597F90895990F13
:1022A0000008550FAA0BE0E8FEEF16161706E80720
:1022B000F907C0F012161306E407F50798F0621B41
:1022C000730B840B950B39F40A2661F0232B242B16
:1022D000252B21F408950A2609F4A140A6958FEF35
:1022E000811D811D08950BD078C069D028F06ED073
:1022F00018F0952309F05AC05FC01124A2C07ED007
:10230000A0F3959FD1F3950F50E0551F629FF00108
:10231000729FBB27F00DB11D639FAA27F00DB11D61
:10232000AA1F649F6627B00DA11D661F829F2227EA
:10233000B00DA11D621F739FB00DA11D621F839F71
:10234000A00D611D221F749F3327A00D611D231F47
:10235000849F600D211D822F762F6A2F11249F5795
:1023600050408AF0E1F088234AF0EE0FFF1FBB1FB8
:10237000661F771F881F91505040A9F79E3F510557
:1023800070F014C05EC05F3FECF3983EDCF38695BE
:1023900077956795B795F795E7959F5FC1F7FE2B02
:1023A000880F911D9695879597F9089597F99F67DE
:1023B00080E870E060E008959FEF80EC08950024CD
:1023C0000A941616170618060906089500240A949A
:1023D00012161306140605060895092E0394000C20
:1023E00011F4882352F0BB0F40F4BF2B11F460FFAF
:1023F00004C06F5F7F4F8F4F9F4F089557FD9058D8
:10240000440F551F59F05F3F71F04795880F97FBB8
:10241000991F61F09F3F79F0879508951216130672
:102420001406551FF2CF4695F1DF08C016161706A1
:102430001806991FF1CF86957105610508940895D6
:10244000E894BB2766277727CB0197F90895A1E287
:102450001A2EAA1BBB1BFD010DC0AA1FBB1FEE1F1E
:10246000FF1FA217B307E407F50720F0A21BB30B69
:10247000E40BF50B661F771F881F991F1A9469F7E5
:1024800060957095809590959B01AC01BD01CF0141
:102490000895052E97FB16F400940FD057FD05D034
:1024A000D6DF07FC02D046F408C050954095309521
:1024B00021953F4F4F4F5F4F0895909580957095B0
:1024C00061957F4F8F4F9F4F08950FD0A59F900D1F
:1024D000B49F900DA49F800D911D11240895B7FF06
:1024E000F4CFF3DF821B930B0895A29FB001B39F3B
:1024F000C001A39F700D811D1124911DB29F700D0D
:10250000811D1124911D08955058BB27AA270ED074
:1025100064CF55DF30F05ADF20F031F49F3F11F4E3
:102520001EF44ACF0EF4E095E7FB40CFE92F66DFBB
:1025300080F3BA17620773078407950718F071F4E0
:102540009EF57ECF0EF4E0950B2EBA2FA02D0B0139
:10255000B90190010C01CA01A0011124FF27591BE8
:1025600099F0593F50F4503E68F11A16F040A22FEE
:10257000232F342F4427585FF3CF4695379527955F
:10258000A795F0405395C9F77EF41F16BA0B620B5E
:10259000730B840BBAF09150A1F0FF0FBB1F661FA5
:1025A000771F881FC2F70EC0BA0F621F731F841FE8
:1025B00048F4879577956795B795F7959E3F08F00E
:1025C000B3CF9395880F08F09927EE0F97958795CD
:1025D00008950CD002CFFADE40F0F1DE30F021F4A5
:1025E0005F3F19F0E3CE51112CCFE6CE07DF98F311
:1025F0009923C9F35523B1F3951B550BBB27AA2784
:1026000062177307840738F09F5F5F4F220F331FF5
:10261000441FAA1FA9F333D00E2E3AF0E0E830D0C1
:1026200091505040E695001CCAF729D0FE2F27D0C4
:10263000660F771F881FBB1F261737074807AB0792
:10264000B0E809F0BB0B802DBF01FF2793585F4F07
:102650002AF09E3F510568F0A9CEF3CE5F3FECF320
:10266000983EDCF3869577956795B795F7959F5FCC
:10267000C9F7880F911D9695879597F90895E1E020
:10268000660F771F881FBB1F621773078407BA077F
:1026900020F0621B730B840BBA0BEE1F88F7E095DA
:1026A000089504D06894B111CCCE0895AFDE88F0BF
:1026B0009F5790F0B92F9927B751A0F0D1F0660F2E
:1026C000771F881F991F1AF0BA95C9F712C0B13049
:1026D00081F0B6DEB1E00895B3CE672F782F88275A
:1026E000B85F39F0B93FCCF3869577956795B39588
:1026F000D9F73EF490958095709561957F4F8F4FF7
:102700009F4F0895CCDD08F48FEF0895C8DD880B46
:10271000990B0895991B79E004C0991F961708F04A
:10272000961B881F7A95C9F780950895EE0FFF1FB5
:10273000881F8BBF0790F691E02D19940F931F937C
:10274000CF93DF938230910510F482E090E0E09126
:102750007004F091710420E030E0A0E0B0E0309728
:1027600019F1408151810281138148175907C8F03E
:102770008417950769F4109731F012960C9312970D
:1027800013961C9327C0009370041093710422C009
:102790002115310519F04217530718F49A01BD01AC
:1027A000EF01DF01F801DBCF21153105F9F0281B1E
:1027B000390B2430310580F48A819B8161157105C4
:1027C00021F0FB019383828304C090937104809372
:1027D0007004FE01329644C0FE01E20FF31F8193A4
:1027E000919322503109398328833AC020916E0495
:1027F00030916F04232B41F42091020230910302A7
:1028000030936F0420936E042091000230910102F6
:102810002115310541F42DB73EB740910402509186
:102820000502241B350BE0916E04F0916F04E21752
:10283000F307A0F42E1B3F0B2817390778F0AC01E3
:102840004E5F5F4F2417350748F04E0F5F1F5093C0
:102850006F0440936E048193919302C0E0E0F0E036
:10286000CF01DF91CF911F910F910895CF93DF9307
:10287000009709F481C0FC01329713821282A09163
:102880007004B0917104109781F420813181820F1E
:10289000931F20916E0430916F042817390751F56A
:1028A000F0936F04E0936E0467C0ED0120E030E028
:1028B000CE17DF0740F44A815B819E014115510527
:1028C000F1F0EA01F5CFD383C28340815181840FB7
:1028D000951FC817D90759F488819981840F951FCE
:1028E0000296918380838A819B81938382832115C1
:1028F000310529F4F0937104E09370043DC0E901BF
:10290000FB83EA8349915991C40FD51FEC17FD074A
:1029100061F480819181840F951F0296E90199836A
:102920008883828193819B838A83E0E0F0E0129622
:102930008D919C911397009719F0FD01DC01F7CF61
:102940008D919C9111979D012E5F3F4F820F931F98
:1029500020916E0430916F042817390769F430977D
:1029600029F4109271041092700402C01382128232
:10297000B0936F04A0936E04DF91CF9108956F928E
:102980007F928F929F92AF92BF92CF92DF92EF92FF
:10299000FF920F931F93CF93DF93009781F4CB01A6
:1029A000DF91CF911F910F91FF90EF90DF90CF902B
:1029B000BF90AF909F908F907F906F90BFCEFC01A3
:1029C000E60FF71F9C0122503109E217F30708F4C4
:1029D000A5C0EC01D9010D911C911197061717079D
:1029E000A8F00530110508F497C0C80104978617B0
:1029F000970708F491C002501109061B170B0193A9
:102A000011936D937C93CF0131DF86C05B01A01AD7
:102A1000B10A4C01800E911EA0917004B091710416
:102A2000612C712CE12CF12C109709F446C08D918A
:102A30009C911197A815B905B1F56C0142E0C40E3F
:102A4000D11CCA14DB0478F14C018A189B0864017C
:102A500042E0C40ED11C1296BC9012971396AC9112
:102A6000B5E0CB16D10440F0B282A383918280827C
:102A7000D9016D937C9309C00E5F1F4F800F911F8A
:102A8000F90191838083EB2DFA2FE114F10431F0E9
:102A9000D7011396FC93EE9312973EC0F093710406
:102AA000E093700439C06816790608F43C017D0192
:102AB00012960D90BC91A02DB7CF80916E0490918D
:102AC0006F0488169906E1F466167706C8F48091BB
:102AD000000290910102009741F48DB79EB740919A
:102AE000040250910502841B950BE817F907B0F416
:102AF000F0936F04E0936E04F901718360830CC05E
:102B0000CB011CDE7C01009749F0A801BE011BD05F
:102B1000CE01ACDEC70104C0CE0102C080E090E06F
:102B2000DF91CF911F910F91FF90EF90DF90CF90A9
:102B3000BF90AF909F908F907F906F90089581E0AD
:102B400090E0F8941BC0FB01DC0102C001900D92E3
:102B500041505040D8F70895FC018191861721F02B
:102B60008823D9F7992708953197CF010895FB015C
:102B7000DC0101900D920020E1F7089511E0C9E316
:102B8000D1E000E005C0802FFE01D0DD2196011DBF
:0E2B9000CA33D10780E00807B1F7F894FFCFF1
:102B9E0000007204800000000000E206FE068004C1
:102BAE0000000000D801D80770012402A1017F01A6
:102BBE00930100000000D707C903564D4450565FDD
:102BCE00317C315F564D4450560D0A0054004D0075
:0C2BDE006E616E00696E66006F76660026
:020000023000CC
:10E000000D9489F10D94B2F10D94B2F10D94B2F129
:10E010000D94B2F10D94B2F10D94B2F10D94B2F1F0
:10E020000D94B2F10D94B2F10D94B2F10D94B2F1E0
:10E030000D94B2F10D94B2F10D94B2F10D94B2F1D0
:10E040000D94B2F10D94B2F10D94B2F10D94B2F1C0
:10E050000D94B2F10D94B2F10D94B2F10D94B2F1B0
:10E060000D94B2F10D94B2F10D94B2F10D94B2F1A0
:10E070000D94B2F10D94B2F10D94B2F10D94B2F190
:10E080000D94B2F10D94B2F10D94B2F10D94B2F180
:10E090000D94B2F10D94B2F10D94B2F10D94B2F170
:10E0A0000D94B2F10D94B2F10D94B2F10D94B2F160
:10E0B0000D94B2F10D94B2F10D94B2F10D94B2F150
:10E0C0000D94B2F10D94B2F10D94B2F10D94B2F140
:10E0D0000D94B2F10D94B2F10D94B2F10D94B2F130
:10E0E0000D94B2F141546D656761323536300041AF
:10E0F000726475696E6F206578706C6F72657220DE
:10E1000073746B3530305632206279204D4C530099
:10E11000426F6F746C6F616465723E004875683F52
:10E1200000436F6D70696C6564206F6E203D200048
:10E130004350552054797065202020203D20005FF9
:10E140005F4156525F415243485F5F3D2000415658
:10E1500052204C696243205665723D20004743437C
:10E160002056657273696F6E203D20004350552024
:10E1700049442020202020203D20004C6F7720663D
:10E18000757365202020203D20004869676820665F
:10E190007573652020203D200045787420667573D6
:10E1A00065202020203D20004C6F636B2066757336
:10E1B000652020203D20004D617220203720323024
:10E1C000313300312E362E3800342E332E350056A2
:10E1D00023202020414444522020206F7020636F70
:10E1E00064652020202020696E73747275637469E1
:10E1F0006F6E2061646472202020496E74657272B3
:10E20000757074006E6F20766563746F7200726A49
:10E210006D702020006A6D70200057686174207056
:10E220006F72743A00506F7274206E6F7420737541
:10E2300070706F72746564004D7573742062652030
:10E2400061206C6574746572002000577269747483
:10E25000696E672045450052656164696E672045B7
:10E26000450045452065727220636E743D00504F35
:10E27000525400303D5A65726F2061646472003FF1
:10E280003D43505520737461747300403D454550C3
:10E29000524F4D207465737400423D426C696E6B41
:10E2A000204C454400453D44756D70204545505215
:10E2B0004F4D00463D44756D7020464C415348001B
:10E2C000483D48656C70004C3D4C69737420492F83
:10E2D0004F20506F72747300513D51756974005234
:10E2E0003D44756D702052414D00563D73686F7707
:10E2F00020696E7465727275707420566563746FF0
:10E30000727300593D506F727420626C696E6B00BD
:10E310002A0011241FBECFEFD1E2DEBFCDBF01E046
:10E320000CBF12E0A0E0B2E0EEE1FDEF03E00BBFB6
:10E3300002C007900D92A030B107D9F712E0A0E01B
:10E34000B2E001C01D92AE30B107E1F70F9460F367
:10E350000D948DFE01E20EBF0FEF0DBF11241FBE05
:10E360000D9460F30D9400F020E030E040ED57E0B4
:10E3700005C0FA013197F1F72F5F3F4F2817390792
:10E38000C0F308959C01260F311DC901A0E0B0E043
:10E390002F5F3F4FABBFFC018791882361F08093D3
:10E3A000C6008091C00086FFFCCF8091C0008064D1
:10E3B0008093C000EACF08958DE08093C6008091DD
:10E3C000C00086FFFCCF8091C00080648093C000B5
:10E3D0008AE08093C6008091C00086FFFCCF8091C8
:10E3E000C00080648093C00008950F94C2F10F9420
:10E3F000DCF10895FC019081992359F09093C600B7
:10E400008091C00086FFFCCF8091C0008064809323
:10E41000C0003196992379F70895282F982F929567
:10E420009F70892F805D8A3308F0895F8093C600D2
:10E430008091C00086FFFCCF8091C00080648093F3
:10E44000C000822F8F70982F905D9A3308F0995FEB
:10E450009093C6008091C00086FFFCCF8091C000E1
:10E4600080648093C00008959C01FB01853691056E
:10E470001CF46330710594F0C90164E670E00F94F8
:10E480002EFE605D7F4F6093C6008091C00086FFC6
:10E49000FCCF8091C00080648093C0002B30310598
:10E4A00014F43297B4F0C90164E670E00F942EFEC4
:10E4B0006AE070E00F942EFE605D7F4F6093C600AF
:10E4C0008091C00086FFFCCF8091C0008064809363
:10E4D000C000C9016AE070E00F942EFEC0968093E0
:10E4E000C6008091C00086FFFCCF8091C000806490
:10E4F0008093C00008951F93182F8EE692EE60E07F
:10E500000F94C2F11093C6008091C00086FFFCCF2B
:10E510008091C00080648093C0000F94DCF11F9153
:10E5200008952F923F924F925F926F927F928F92B7
:10E530009F92AF92BF92CF92DF92EF92FF920F9392
:10E540001F93DF93CF93CDB7DEB762970FB6F894E2
:10E55000DEBF0FBECDBF382E622ECA01DB015C01CB
:10E560006D01772420E2222E2E010894411C511CBB
:10E570008BC081E0A81680E0B80681E0C80680E084
:10E58000D80628F0C601AA27BB270F940DF2BB2797
:10E59000AD2D9C2D8B2D0F940DF28A2D0F940DF225
:10E5A0002092C6008091C00086FFFCCF8091C00001
:10E5B00080648093C0009DE29093C6008091C0006B
:10E5C00086FFFCCF8091C00080648093C0002092C1
:10E5D000C6008091C00086FFFCCF8091C00080649F
:10E5E0008093C00019828601750188249924A1E0D6
:10E5F0003A1651F03A1620F0B2E03B1661F409C029
:10E600000BBFF701779007C0C7010F9477FE782EF4
:10E6100002C0F7017080872D0F940DF22092C60082
:10E620008091C00086FFFCCF8091C0008064809301
:10E63000C000872D8052F401EF70F0708F3520F408
:10E64000E40DF51D708204C0E40DF51D8EE280839B
:10E650000894E11CF11C011D111D0894811C911CE2
:10E6600090E18916910409F0C2CF80E190E0A0E02A
:10E67000B0E0A80EB91ECA1EDB1E198AC2010F9493
:10E68000FAF10F94DCF16A94662009F072CF629679
:10E690000FB6F894DEBF0FBECDBFCF91DF911F91B3
:10E6A0000F91FF90EF90DF90CF90BF90AF909F9031
:10E6B0008F907F906F905F904F903F902F90089534
:10E6C0002F923F924F925F926F927F928F929F9282
:10E6D000AF92BF92CF92DF92EF92FF920F931F9370
:10E6E000DF93CF93CDB7DEB7CD53D1400FB6F894BB
:10E6F000DEBF0FBECDBF01E20EBF0FEF0DBF94B75F
:10E70000F894A89514BE80916000886180936000A1
:10E7100010926000789493FF05C0E0910002F091A0
:10E7200001021995279A2F9A8091C00082608093E8
:10E73000C00080E18093C40088E18093C1000000A4
:10E74000EE24FF24870144E0A42EB12CCC24DD2448
:10E7500024C0C5010197F1F70894E11CF11C011DCB
:10E76000111D21E2E2162EE4F20620E0020720E06D
:10E77000120718F031E0C32ED12CC801B70127ECE5
:10E780003BE140E050E00F9441FE611571058105C9
:10E79000910519F485B1805885B98091C00087FD35
:10E7A00003C0C114D104A9F2A6014F5F5F4FC25E3E
:10E7B000DE4F59834883CE51D140C25EDE4F8881FF
:10E7C0009981CE51D140019711F00D9410FEC05D9A
:10E7D000DE4F19821882C053D14060E0C15DDE4F28
:10E7E0001882CF52D14088249924C35DDE4F19820C
:10E7F0001882CD52D140C05EDE4F188219821A8233
:10E800001B82C052D140CE5CDE4F188219821A8220
:10E810001B82C253D140EE24FF2487010BBFF701B6
:10E8200007911691C45CDE4F19830883CC53D14005
:10E830000D940BFEC25EDE4F28813981CE51D1404E
:10E840002130310509F52091C600C25EDE4F1982E4
:10E850001882CE51D14022C02F5F3F4F4F4F5F4FA4
:10E86000213082E138078AE7480780E0580780F0C6
:10E87000C45CDE4FE881F981CC53D140EF5FFF4F9C
:10E8800019F0EE27FF27099420E030E040E050E047
:10E890008091C00087FFE0CF2091C600C35DDE4FAE
:10E8A00048815981CD52D1404F5F5F4FC35DDE4FEC
:10E8B00059834883CD52D140213209F063C64A3092
:10E8C000510508F05FC60894811C911C53E0851621
:10E8D000910409F059C600E010E018C081E280936D
:10E8E000C6008091C00086FFFCCF8091C00080648C
:10E8F0008093C0002F5F3F4F2931310579F70F9486
:10E90000DCF10F5F1F4F0530110519F020E030E0FA
:10E91000E5CF10920A0210920B0210920C02109294
:10E920000D02109206021092070210920802109235
:10E930000902109202021092030210920402109235
:10E9400005028FEE90EE60E00F94F5F180E191EE1C
:10E9500060E00F94C2F18091C00087FFFCCF9091DE
:10E96000C600903608F09F759032B8F09093C600BC
:10E970008091C00086FFFCCF8091C00080648093AE
:10E98000C000A0E2A093C6008091C00086FFFCCF2B
:10E990008091C00080648093C000983409F4D7C18E
:10E9A0009934B8F4923409F459C1933458F490333B
:10E9B00019F1903308F4E3C59F33A1F1903409F0C5
:10E9C000DEC5BDC0953409F470C1963409F0D7C5D1
:10E9D00098C1923509F42BC2933538F49C3409F46C
:10E9E000F5C1913509F0CBC518C2963509F445C279
:10E9F000993509F0C4C567C483E792EE62E00F94CD
:10EA0000F5F110920602109207021092080210927D
:10EA1000090210920A0210920B0210920C0210923C
:10EA20000D0213C18FE792EE62E00F94F5F18FEEC5
:10EA300090EE60E00F94F5F181E291EE60E00F94CA
:10EA4000C2F187EB91EE60E00F94F5F180E391EE77
:10EA500060E00F94C2F184EE90EE60E00F94F5F167
:10EA60008FE391EE60E00F94C2F186E090E061E008
:10EA700070E00F9434F20F94DCF18DE591EE60E0DC
:10EA80000F94C2F189EC91EE60E00F94F5F18EE401
:10EA900091EE60E00F94C2F183EC91EE60E00F9490
:10EAA000F5F18CE691EE60E00F94C2F18EE10F94E7
:10EAB0000DF288E90F940DF281E00F940DF20F949E
:10EAC000DCF18BE791EE60E00F94C2F119E0E0E039
:10EAD000F0E010935700E4918E2F0F940DF20F94F5
:10EAE000DCF18AE891EE60E00F94C2F1E3E0F0E03F
:10EAF00010935700E4918E2F0F940DF20F94DCF1D8
:10EB000089E991EE60E00F94C2F1E2E0F0E0109349
:10EB10005700E4918E2F0F940DF20F94DCF188EAE8
:10EB200091EE60E00F94C2F1E1E0F0E01093570045
:10EB30001491812F0F940DF20F94DCF107CF8BE825
:10EB400092EE62E00F94F5F18BE492EE60E00F94A8
:10EB5000F5F10F94DCF100E010E019C0C8016F2D51
:10EB60000F947FFEFF2031F489E492EE60E00F9471
:10EB7000C2F10BC0F092C6008091C00086FFFCCFAE
:10EB80008091C00080648093C0000F5F1F4FC80158
:10EB900081519F41A0E0B0E0ABBFFC01F790BAE229
:10EBA000FB1621F0E2E000301E07C1F60F94DCF105
:10EBB0000F94DCF187E592EE60E00F94F5F10F948D
:10EBC000DCF1CC24DD2400E010E01EC0C8010F946D
:10EBD00077FEF82E882331F489E492EE60E00F94FA
:10EBE000C2F10BC08093C6008091C00086FFFCCFAD
:10EBF0008091C00080648093C000FE1419F00894D6
:10EC0000C11CD11C0F5F1F4FC80181519F41A0E063
:10EC1000B0E0ABBFFC01E790FAE2EF1621F022E092
:10EC20000030120799F60F94DCF10F94DCF182E6C4
:10EC300092EE60E00F94C2F1C60161E070E00F94C3
:10EC400034F20F94DCF10F94DCF110920202109276
:10EC50000302109204021092050278CE89E992EE26
:10EC600062E00F94F5F1279A2F9A16C02F9880E052
:10EC700090E0E0EDF7E03197F1F7019684369105E9
:10EC8000C1F72F9A80E090E0E0EDF7E03197F1F7DF
:10EC9000019684369105C1F78091C00087FFE6CFC9
:10ECA0008091C00087FFFCCF64C485EA92EE62E0E9
:10ECB0000F94F5F140910202509103026091040219
:10ECC0007091050281E020E10F9491F2809102029F
:10ECD00090910302A0910402B091050280509F4FD1
:10ECE000AF4FBF4F8093020290930302A0930402A0
:10ECF000B093050280509041A040B04008F426CE69
:10ED0000A4CF83EB92EE62E00F94F5F140910602FE
:10ED100050910702609108027091090280E020E1A1
:10ED20000F9491F28091060290910702A09108023F
:10ED3000B091090280509F4FAF4FBF4F80930602A2
:10ED400090930702A0930802B0930902FFCD80ECD4
:10ED500092EE62E00F94F5F183E792EE60E00F949B
:10ED6000F5F18FE792EE60E00F94F5F18BE892EE0B
:10ED700060E00F94F5F189E992EE60E00F94F5F10F
:10ED800085EA92EE60E00F94F5F183EB92EE60E09D
:10ED90000F94F5F180EC92EE60E00F94F5F187ECC2
:10EDA00092EE60E00F94F5F188ED92EE60E00F9442
:10EDB000F5F18FED92EE60E00F94F5F18AEE92EEB0
:10EDC00060E00F94F5F183E093EEBDCD87EC92EE19
:10EDD00062E00F94F5F181E40F947BF282E40F94EA
:10EDE0007BF283E40F947BF284E40F947BF285E45E
:10EDF0000F947BF286E40F947BF287E40F947BF20E
:10EE000088E40F947BF28AE40F947BF28BE40F94F6
:10EE10007BF28CE40F947BF299CD88ED92EE62E068
:10EE20000F94F5F1772473948824992409C48FED05
:10EE300092EE62E00F94F5F140910A0250910B02BC
:10EE400060910C0270910D0282E020E10F9491F22A
:10EE500080910A0290910B02A0910C02B0910D02D8
:10EE600080509F4FAF4FBF4F80930A0290930B0289
:10EE7000A0930C02B0930D0269CD8AEE92EE62E08F
:10EE80000F94F5F184EE90EE60E00F94F5F18FECC5
:10EE900091EE60E00F94F5F1662477244301CC5D98
:10EEA000DE4F19821882C452D140D401C301B695F5
:10EEB000A79597958795CA5DDE4F88839983AA8326
:10EEC000BB83C652D140CC5DDE4FA881B981C4520C
:10EED000D1401196CC5DDE4FB983A883C452D14096
:10EEE000CD0162E070E00F9434F2B0E2B093C6005E
:10EEF0008091C00086FFFCCF8091C0008064809329
:10EF0000C000EDE2E093C6008091C00086FFFCCF18
:10EF10008091C00080648093C000F0E2F093C6004E
:10EF20008091C00086FFFCCF8091C00080648093F8
:10EF3000C000CA5DDE4FE880F9800A811B81C6529D
:10EF4000D140BB27A12F902F8F2D0F940DF2CA5DBA
:10EF5000DE4F8881C652D1400F940DF2B0E2FB2EF5
:10EF6000F092C6008091C00086FFFCCF8091C00067
:10EF700080648093C0000DE30093C6008091C000C0
:10EF800086FFFCCF8091C00080648093C00010E2B7
:10EF90001093C6008091C00086FFFCCF8091C00016
:10EFA00080648093C0008BBEF3012791C65DDE4F65
:10EFB0002883CA52D140A22EBB24CC24DD2408943D
:10EFC000611C711C811C911C8BBEF3018791282E42
:10EFD0003324442455240894611C711C811C911C09
:10EFE0008BBEF3013791C55DDE4F3883CB52D140E4
:10EFF0000894611C711C811C911C8BBEF30147910C
:10F00000C45DDE4F4883CC52D140ADEFEA2EAFEF66
:10F01000FA2EAFEF0A2FAFEF1A2F6E0C7F1C801E57
:10F02000911E142D032DF22CEE24EA0CFB1C0C1D5A
:10F030001D1D0F940DF220E22093C6008091C000A8
:10F0400086FFFCCF8091C00080648093C000C65DC5
:10F05000DE4F8881CA52D1400F940DF230E23093D6
:10F06000C6008091C00086FFFCCF8091C000806404
:10F070008093C000C45DDE4F8881CC52D1400F9494
:10F080000DF240E24093C6008091C00086FFFCCFA5
:10F090008091C00080648093C000C55DDE4F888190
:10F0A000CB52D1400F940DF250E25093C6008091A4
:10F0B000C00086FFFCCF8091C00080648093C000B8
:10F0C0008FEFE8168FEFF80680E0080780E018075A
:10F0D00031F484E092EE60E00F94C2F1DFC0D80119
:10F0E000C7018070907CA070B0708050904CA040A0
:10F0F000B040D1F52FEF3FE340E050E0E222F322B1
:10F1000004231523CA5DDE4FA880B980CA80DB8046
:10F11000C652D140AE0CBF1CC01ED11EAA0CBB1CD7
:10F12000CC1CDD1C8EE092EE60E00F94C2F1BB2798
:10F13000A12F902F8F2D0F940DF28E2D0F940DF285
:10F1400030E23093C6008091C00086FFFCCF8091F2
:10F15000C00080648093C0004EE34093C60080915D
:10F16000C00086FFFCCF87C08EE09EEFA0E0B0E03D
:10F17000E822F9220A231B239CE0E91694E9F90608
:10F1800090E0090790E0190709F088C0C45DDE4FE0
:10F19000A881CC52D140EA2EFF2400E010E0102FCD
:10F1A0000F2DFE2CEE24C55DDE4FB881CB52D14031
:10F1B000EB0EF11C011D111DD601C501817090706F
:10F1C000A070B070DC0199278827E80EF91E0A1F8D
:10F1D0001B1F20EF30E040E050E0A222B322C42207
:10F1E000D52241E1AA0CBB1CCC1CDD1C4A95D1F7F1
:10F1F000EA0CFB1C0C1D1D1D81E090E0A0E0B0E0BE
:10F20000282239224A225B2235E1220C331C441C7D
:10F21000551C3A95D1F7E20CF31C041D151D57013E
:10F220006801AA0CBB1CCC1CDD1C85E192EE60E0E1
:10F230000F94C2F1C801AA27BB270F940DF2BB2778
:10F24000A12F902F8F2D0F940DF28E2D0F940DF274
:10F2500090E29093C6008091C00086FFFCCF809121
:10F26000C00080648093C000AEE3A093C60080918C
:10F27000C00086FFFCCF8091C00080648093C000F6
:10F28000C601AA27BB270F940DF2BB27AD2D9C2DDD
:10F290008B2D0F940DF28A2D0F940DF20F94DCF14B
:10F2A000CC5DDE4FE881F981C452D140F99709F471
:10F2B0004DCBF4E0EF2EF12C012D112D6E0C7F1CA7
:10F2C000801E911EF2CD83E093EE62E00F94F5F183
:10F2D0008AE192EE60E00F94C2F18091C00087FF56
:10F2E000FCCF1091C6001F751093C6008091C0001E
:10F2F00086FFFCCF8091C00080648093C0000F9493
:10F30000DCF1812F81548A3108F036C1163409F4BA
:10F3100095C0173490F4133409F44EC0143430F40B
:10F320001134F1F0123409F01DC130C0143409F465
:10F3300059C0153409F016C16BC01A3409F4C4C0A1
:10F340001B3438F4173409F48FC0183409F00AC19B
:10F35000A1C01B3409F4D2C01C3409F003C1E8C0B9
:10F360008FEF81B90DC082B1809582B980E090E0C5
:10F37000E0EDF7E03197F1F70196883C9105C1F790
:10F380008091C00087FFEFCF12B8EFC08FEF84B934
:10F390000DC085B1809585B980E090E0E0EDF7E0A3
:10F3A0003197F1F70196883C9105C1F78091C00033
:10F3B00087FFEFCF15B8D9C08FEF87B90DC088B1DF
:10F3C000809588B980E090E0E0EDF7E03197F1F7C3
:10F3D0000196883C9105C1F78091C00087FFEFCF6F
:10F3E00018B8C3C08FEF8AB90DC08BB180958BB9A7
:10F3F00080E090E0E0EDF7E03197F1F70196883C8E
:10F400009105C1F78091C00087FFEFCF1BB8ADC059
:10F410008FEF8DB90DC08EB180958EB980E090E0F0
:10F42000E0EDF7E03197F1F70196883C9105C1F7DF
:10F430008091C00087FFEFCF1EB897C08FEF80BBD1
:10F440000DC081B3809581BB80E090E0E0EDF7E0F6
:10F450003197F1F70196883C9105C1F78091C00082
:10F4600087FFEFCF11BA81C08FEF83BB0DC084B38C
:10F47000809584BB80E090E0E0EDF7E03197F1F714
:10F480000196883C9105C1F78091C00087FFEFCFBE
:10F4900014BA6BC08FEF809301010FC080910201FD
:10F4A00080958093020180E090E0E0EDF7E03197F5
:10F4B000F1F70196883C9105C1F78091C00087FF64
:10F4C000EDCF1092020151C08FEF809304010FC065
:10F4D0008091050180958093050180E090E0E0ED4A
:10F4E000F7E03197F1F70196883C9105C1F78091DB
:10F4F000C00087FFEDCF1092050137C08FEF8093DA
:10F5000007010FC08091080180958093080180E079
:10F5100090E0E0EDF7E03197F1F70196883C910536
:10F52000C1F78091C00087FFEDCF109208011DC088
:10F530008FEF80930A010FC080910B01809580931B
:10F540000B0180E090E0E0EDF7E03197F1F70196F4
:10F55000883C9105C1F78091C00087FFEDCF1092E4
:10F560000B0103C085E292EEEEC98091C00087FFD7
:10F57000FCCF8091C600EAC988E392EEE4C98CE131
:10F5800091EEE1C988249924933011F1943028F444
:10F59000913089F09230B8F408C0953061F195301F
:10F5A000F0F0963009F048C043C02B3109F042C951
:10F5B00091E06BE13FC96227C15DDE4F2883CF52E6
:10F5C000D14092E037C9B22FA0E0622793E032C960
:10F5D000822F90E0A82BB92B622794E02BC92E3004
:10F5E00009F039C3622795E0C05DDE4F19821882A9
:10F5F000C053D1401FC9E1E0F0E0EC0FFD1FC05D3A
:10F60000DE4F08811981C053D140E00FF11F2083E4
:10F610000F5F1F4FC05DDE4F19830883C053D14079
:10F6200062270A171B0709F005C9D80196E002C92D
:10F63000261709F010C303C0973009F0FBC87724E0
:10F640009981933109F412C19431C8F4963009F4C8
:10F65000D8C0973050F4923009F406C1933009F4C1
:10F660006DC0913009F059C253C0913109F477C08F
:10F67000923108F0BBC0903109F04FC2F5C098310B
:10F6800009F487C0993150F4953109F4EFC09531F0
:10F6900008F4C6C1963109F040C2C2C19A3109F4DA
:10F6A0006CC09A3108F491C09B3109F45BC09D3164
:10F6B00009F033C29D81903359F48F81882311F46E
:10F6C0009EE11CC0813011F091E018C098E916C08D
:10F6D000892F807591F0903539F4E0E0F0E089E011
:10F6E0008093570094910AC0983539F4E3E0F0E034
:10F6F00089E080935700949101C090E01A821B82A8
:10F700008D818C831D829E831F8227E030E009C299
:10F710001A8288E08B8381E48C8386E58D8382E581
:10F720008E8389E48F8383E5888780E589878FE5E9
:10F730008A8782E38B872BE030E0F3C18A818139AD
:10F7400041F0823941F0803911F48FE005C080E04A
:10F7500003C082E001C08AE01A828B8344C0772410
:10F76000739482C08D81882311F48EE12CC0813086
:10F7700011F081E028C088E926C01A82E1E0F0E0BB
:10F7800089E08093570084918B831C8224E030E0D1
:10F79000C8C18B81803589F48C81883039F4E2E0EE
:10F7A000F0E089E08093570084910DC0E0E0F0E044
:10F7B00089E080935700849106C0E3E0F0E089E09F
:10F7C0008093570084911A82DFCF8D81836C99E0FA
:10F7D000E1E0F0E0082E90935700E89507B600FCB2
:10F7E000FDCF1A821B8223E030E09BC180EC8A832C
:10F7F000CE5CDE4F188219821A821B82C253D1401E
:10F800008EC18A8190E0A0E0B0E0582F44273327D2
:10F8100022278B8190E0A0E0B0E0DC0199278827C7
:10F82000282B392B4A2B5B2B8D8190E0A0E0B0E098
:10F83000282B392B4A2B5B2B8C8190E0A0E0B0E089
:10F84000BA2FA92F982F8827282B392B4A2B5B2BCF
:10F85000220F331F441F551FC05EDE4F288339839C
:10F860004A835B83C052D1401A8259C13A81C95C34
:10F87000DE4F3883C753D140CA5CDE4F1882C6536F
:10F88000D1408B81C82EDD24CA5CDE4F488159816E
:10F89000C653D140C42AD52A933109F082C0CE5C28
:10F8A000DE4F88819981AA81BB81C253D1408050AB
:10F8B000904CA340B04030F583E0CE5CDE4FE88052
:10F8C000F9800A811B81C253D140F70100935B008C
:10F8D00080935700E89507B600FCFDCFCE5CDE4F65
:10F8E000088119812A813B81C253D14000501F4FAA
:10F8F0002F4F3F4FCE5CDE4F088319832A833B8313
:10F90000C253D140C05EDE4F488159816A817B81FC
:10F91000C052D140DE011B9631E08C9111962C91A2
:10F9200011971296C75CDE4F2883C953D140C85C3B
:10F93000DE4F1882C853D14090E0C85CDE4FE881AA
:10F94000F981C853D1408E2B9F2B0C01FA01609393
:10F950005B0030935700E89511244E5F5F4F6F4F67
:10F960007F4F0EEFE02E0FEFF02ECE0CDF1CC114F8
:10F97000D10499F685E0C05EDE4F088119812A81A5
:10F980003B81C052D140F80120935B008093570027
:10F99000E89507B600FCFDCF81E180935700E8951C
:10F9A00035C0C05EDE4F88819981AA81BB81C0527B
:10F9B000D140B695A795979587957C018601ABE0D8
:10F9C000AA2EB12CAC0EBD1E0BC0D5016D915D01F0
:10F9D000C7010F947FFE0894E11CF11C01501040F8
:10F9E0000115110591F7A60160E070E0440F551F65
:10F9F000661F771FC05EDE4FE880F9800A811B8199
:10FA0000C052D1404E0D5F1D601F711F1A82C05E33
:10FA1000DE4F488359836A837B83C052D1407FC0C5
:10FA2000FA80C55CDE4FF882CB53D140C65CDE4F16
:10FA30001882CA53D1408B81C82EDD24C65CDE4FAC
:10FA400008811981CA53D140C02AD12A1A828981DA
:10FA5000BE016D5F7F4F843121F59601C05EDE4FA0
:10FA6000E880F9800A811B81C052D1400BBFF701A9
:10FA700087919691DB018C9311969C936E5F7F4FDB
:10FA8000D801C7010296A11DB11DC05EDE4F88835B
:10FA90009983AA83BB83C052D14022503040F1F6F3
:10FAA00036C0C05EDE4F288139814A815B81C052F9
:10FAB000D1400894C108D108760100E010E0089414
:10FAC000C11CD11C0894E11CF11C011D111DE20E8A
:10FAD000F31E041F151F21BDBB27A52F942F832FB5
:10FAE00082BD2F5F3F4F4F4F5F4FF89A80B5DB01CC
:10FAF0008D93BD012E153F054007510761F7C05E8C
:10FB0000DE4F288339834A835B83C052D1409601FC
:10FB10002D5F3F4FFB01108204C080EC8A8322E0FE
:10FB200030E08BE18093C6008091C00086FFFCCF5F
:10FB30008091C00080648093C000C15DDE4FF88179
:10FB4000CF52D140F093C6008091C00086FFFCCF19
:10FB50008091C00080648093C000432F3093C60022
:10FB60008091C00086FFFCCF8091C00080648093AC
:10FB7000C000922F2093C6008091C00086FFFCCF6A
:10FB80008091C00080648093C0008EE08093C600A6
:10FB90008091C00086FFFCCF8091C000806480937C
:10FBA000C00065E1C15DDE4FE880CF52D1406E25D7
:10FBB00069276427FE01319610C090819093C6009A
:10FBC0008091C00086FFFCCF31968091C000806498
:10FBD0008093C0006927215030402115310569F715
:10FBE0006093C6008091C00086FFFCCF8091C0006A
:10FBF00080648093C00085B1805885B9772081F4F6
:10FC0000C15DDE4F0881CF52D1400F5FC15DDE4F35
:10FC10000883CF52D14090E0A0E0B0E00D941AF4F8
:10FC200027982F9880E090E020ED37E0F901319798
:10FC3000F1F7019684369105C9F700008091C00064
:10FC40008D7F8093C00081E180935700E895EE2777
:10FC5000FF270994FFCF90E00D941AF497FB092E2B
:10FC600007260AD077FD04D02ED006D000201AF443
:10FC7000709561957F4F0895F6F7909581959F4F08
:10FC80000895A1E21A2EAA1BBB1BFD010DC0AA1FDD
:10FC9000BB1FEE1FFF1FA217B307E407F50720F0F5
:10FCA000A21BB30BE40BF50B661F771F881F991F70
:10FCB0001A9469F760957095809590959B01AC01B9
:10FCC000BD01CF010895AA1BBB1B51E107C0AA1FAC
:10FCD000BB1FA617B70710F0A61BB70B881F991FED
:10FCE0005A95A9F780959095BC01CD010895F99991
:10FCF000FECF92BD81BDF89A992780B50895262F31
:10FD0000F999FECF1FBA92BD81BD20BD0FB6F89400
:0EFD1000FA9AF99A0FBE01960895F894FFCF63
:040000033000E000E9
:00000001FF